:0200000460009A
:100000004643464200000156000000000101020084
:1000100000000000000000000000000000000000E0
:1000200000000000000000000000000000000000D0
:1000300000000000000000000000000000000000C0
:1000400000000000010403000000000000000000A8
:100050000000800000000000000000000000000020
:100060000000000000000000000000000000000090
:100070000000000000000000000000000000000080
:10008000EB04180A063204260000000000000000FD
:10009000050404240000000000000000000000002F
:1000A0000000000000000000000000000000000050
:1000B0000604000000000000000000000000000036
:1000C0000000000000000000000000000000000030
:1000D00020041808000000000000000000000000DC
:1000E0000000000000000000000000000000000010
:1000F0000000000000000000000000000000000000
:10010000D8041808000000000000000000000000F3
:100110000204180804200000000000000000000095
:1001200000000000000000000000000000000000CF
:10013000600400000000000000000000000000005B
:1001400000000000000000000000000000000000AF
:10015000000000000000000000000000000000009F
:10016000000000000000000000000000000000008F
:10017000000000000000000000000000000000007F
:10018000000000000000000000000000000000006F
:10019000000000000000000000000000000000005F
:1001A000000000000000000000000000000000004F
:1001B000000000000000000000000000000000003F
:1001C000000100000010000001000000000000001D
:1001D000000001000000000000000000000000001E
:1001E000000000000000000000000000000000000F
:1001F00000000000000000000000000000000000FF
:10020000FFFFFFFFFFFFFFFFFFFFFFFFFFFFFFFFFE
:10021000FFFFFFFFFFFFFFFFFFFFFFFFFFFFFFFFEE
:10100000D10020402C100060000000000000000013
:1010100020100060001000600000000000000000D0
:1010200000000060A8120100000000000000012084
:1010300035100060774B4FF42A01774A77485A649D
:101040001864774A99639546764A03F530337649B2
:1010500008208A42C3F854010FD0744B9A420CD234
:10106000D4430846234423F0030304330B4450F8CD
:10107000041B984242F8041BF9D16D4A6D498A421B
:101080000FD06D4B9A420CD2D4430846234423F030
:10109000030304330B4450F8041B984242F8041B2A
:1010A000F9D1664A664B9A420BD2D04311460024CE
:1010B000034423F003030433134441F8044B8B42ED
:1010C000FBD1604A4FF470015F4B116003F5307142
:1010D0005E4A43F8042F9942FBD15D4B80215D4A63
:1010E00003F8011B9342FBD15B4C4FF080375B4E02
:1010F0004FF0FF32DFF8A4A10025DFF8A491DFF85C
:10110000A481574B4349C3F800A0C4F80471C4F844
:101110000091C4F8F470C4F8F080F36923F07F0301
:1011200043F04003F361736A23F07F0343F040030D
:1011300073628A66CA660A674A6700F0B5F8494A68
:101140006320494B4949106003221D60CAF83810DA
:1011500043F8082C4649474A4748C3F8082D0B680E
:10116000464A43F08073CAF83C0045480B60136858
:10117000444943F00103136003680B6000F0CEFAAA
:10118000C4F804714048C4F80091C4F8F470C4F87D
:10119000F08000F0B1FC00BF00BF00BF00BFF16EE7
:1011A0003A4A41F440513A4BF1661560C2F8085191
:1011B000C2F81851C2F82851C2F838519A6BD207B8
:1011C00008D442F61562334959651A659A6B42F0A4
:1011D00001029A632E4A304C936843F001139360E6
:1011E00000F0DEF800F070FC2368132BFCD900F04F
:1011F00055FB00F0C9FB00F077FC00F0C1FA00F0ED
:101200007FFC2368B3F5967FFBD300F07DFC00F0F4
:1012100063FCFEE700C00A40AFAAAAAA07002000AC
:101220000000072000000000301B0060C8DC000048
:1012300000000020FCF70060B01A0020B01A002067
:10124000C042002088ED00E0FC270020594B000040
:1012500000E400E0A0E400E000800D4000C00F408A
:1012600008ED00E014E000E018E000E0B55D0000EB
:10127000FCED00E000002020B95D0000001000E05F
:10128000041000E0982100200046C32300400840DD
:1012900000400D400000C056A02100200028002082
:1012A0001B1018200C0D1113F0B5284A0020284BF4
:1012B0004FF0100C274C1127DFF8D8E012262060E1
:1012C0000125C2F800C0C3F800E01760DFF8C8E0ED
:1012D000214FC3F800E016601F60204E204F1660BB
:1012E00020491F60204E41F01501204F16601F60FD
:1012F00007F540371E4E116002371E60DFF89CE094
:101300001C4E1D49C2F800E01F6016601B4F19609B
:101310001B4E1C4917601E601B4F11601B4E1C4961
:101320001F60166019602560BFF34F8FBFF36F8F8A
:10133000C3F8B001BFF34F8FBFF36F8F52F8883CF3
:1013400043F4403342F8883CF0BD00BF9CED00E020
:10135000A0ED00E094ED00E0090010001300200073
:1013600021000207C04200201400002025000813BD
:10137000090000101700004033001013180000602F
:101380002F000B071900007037000B171A000070B0
:101390002F000B133F00001025000803160020202B
:1013A000F0B5B84B1822B84E0120B84948F20C7E6F
:1013B000B74D4FF0FF37B74CC3F85C12C3F860521B
:1013C0000025C3F86412C3F868424FF40054C3F810
:1013D0006C62B149C3F87062C3F87462C3F8786292
:1013E000AE4EDA661A675A679A67DA67C3F88020E2
:1013F000C3F88420C3F8882040F20562C1F82C03AA
:10140000C1F83003C1F83403C1F83803C1F83C0314
:10141000C1F850032946B369A1481840A14B0343C2
:10142000A148B361D6F8843043F00C03C6F8843089
:101430000226036833430360036803EA0E0E9B4BE6
:101440004EEA0303DFF89CE20360994B4760DEF845
:1014500008703B40974F43F000538360C36823F00C
:101460007803C360036A1F40934B3B43914F036271
:10147000036A1F40904B3B43904F43628762C762B1
:10148000DEF8B8308E4F23F03F0343F00103C0F87D
:10149000B830DEF8BC30DFF834E223F03F0343F02D
:1014A0000103C0F8BC30056104660767C0F88020FE
:1014B00044664767C0F884200468824B24F0020425
:1014C000814A0460C0F818E0C66143F8041B9342E7
:1014D000FBD1754B1A68194642F001021A600B687D
:1014E000714A13F00103FAD1784E022540F2F564F7
:1014F00040F2664040F29941754F966142F20146D2
:10150000D56140F23545C2F8004242F20124C2F8EA
:1015100010020120C2F820121146C2F8307207F101
:101520005A47C2F8346207F51377C2F84052694E41
:10153000694DC2F85072C2F85462C2F86052C2F8E3
:101540006442C2F8A030C2F8A430C2F8B0004B69BF
:10155000554ADD07FBD5012300244FF480301146A6
:101560005361C2F8A040C2F8A400C2F8B0304B6981
:101570004D4ADC07FBD5012300244FF4003011460F
:101580005361C2F8A040C2F8A400C2F8B0304B6961
:10159000454AD807FBD50123002450481146536122
:1015A000C2F8A040C2F8A400C2F8B0304B693E4A6D
:1015B000DB07FBD5D2F8003145F60D5121209BB257
:1015C00050618B4200D0F0BD00244FF480200123F5
:1015D0001146C2F8A040C2F8A400C2F8B0304B696E
:1015E000314ADF07FBD501234FF4000400201146E8
:1015F0005361C2F8A040C2F8A400C2F8B0304B69F1
:10160000294ADE07FBD501234FF400044FF4803054
:1016100011465361C2F8A040C2F8A400C2F8B0302D
:101620004B69214ADD07FBD501234FF400044FF439
:10163000003011465361C2F8A040C2F8A400C2F8BD
:10164000B0304B69184ADC07FBD501234FF4000486
:10165000224811465361C2F8A040C2F8A400C2F863
:10166000B0304B69104AD807FBD5D2F8003145F6A7
:101670000D5121209BB250618B4235D0184B08226E
:101680001A70F0BD00801F40F9700100F9B0010030
:10169000F9100100F900010000841F4000C00F4054
:1016A000FFFCFF1F000300A000402A401200FFFFC4
:1016B000FF37F70000FFF07C40000080FF000F8341
:1016C0006300020000422A4000432A40F05AF05AC8
:1016D0009F041830063201263806180A0400030059
:1016E000A421002000802A404FF400044FF4802001
:1016F00001231146C2F8A040C2F8A400C2F8B030DD
:101700004B69044ADB07FBD50120034B10215061D4
:101710001970F0BD00402A40A4210020F0B4174AFF
:1017200040274FF480314FF480564FF400554FF46A
:10173000404443F24200136913F0020F06D0946153
:1017400051619061136913F0020FF8D113F4005F37
:1017500001D15561EFE713F4805F01D15661EAE7EB
:10176000002BE8DA13F4803F01D09161E3E75B06D8
:1017700001D45761DFE7F0BC704700BF00800D4027
:101780003B4AF3EE096A3B4900201368F0B523F0A9
:1017900001030324DFF800E11360C2F89040D1F8A0
:1017A000E030354FDDB2C3F30B24344EC4EB13539A
:1017B00007EE905AA5F15501CEF80050B8EEE77A41
:1017C00003EB830507EE904A03FB01F13B6003EB5B
:1017D0008313B8EEE75A07EE901A491B77EE666A54
:1017E000B8EE677A264D07EE901A0B44C5ED006AF5
:1017F000F8EE677A3460C7EE265A224E1568224901
:10180000224C87EEA66A07EE903A214BC6F840318B
:10181000F8EE677A87EEA67A75EE855A76EE056A57
:10182000FCEEE55AFCEEE66A15EE903A45EA035303
:1018300016EE905A77EE057A136001EA0541D2F868
:101840001031FCEEE77A0B43C2F8103117EE903AF4
:10185000D2F81011C3F30B030B43C2F81031136815
:1018600043F00203136020700A4B01221A60F0BD9E
:1018700080810D4000441F40B0210020B421002091
:10188000AC210020002800200000FF0F40E400E011
:10189000354C000008E100E0A8210020304B40F664
:1018A000617270B5C3F8202140F2044500F010F9D0
:1018B0002C492D48D1F880202C4C42F003022C4BAF
:1018C000C1F88020C0F86051226813401BB9D0F8DD
:1018D000A8319A071AD0244B4FF00041234A516394
:1018E0001A46D3F8401141F00201C3F84011D2F872
:1018F00040319B07FBD44FF400301E491B4B4FF087
:101900000042086019209A6300F0EAF81A4D00229C
:10191000164B4FF08041144C0A26996328461A60F2
:101920001146C4F8A8614FF4207200F0E1F84FF4BA
:1019300081064FF4800040F24313104A10492E6094
:101940002864C4F85851C2F80412C4F848310D4A4A
:101950004FF4003101231160C4F8403170BD00BF65
:1019600000800D4000C00F4000002E4000900D4050
:10197000001C1E008CE200E0004000200028002037
:10198000A14D00000CE100E0114B1249D86E0A464F
:1019900040F4403030B4D86640F23765D86EA024A9
:1019A00040F44070D8664D648C64936C1B06FCD484
:1019B000094B40F23760A0211A4658649964936C31
:1019C00013F08003FBD1054A137030BC704700BF91
:1019D00000C00F4000400C4000800C40112500204A
:1019E0007C3C3E5E2B3D3F2F5B5D3B2C2A225C0006
:1019F000160355005300420020005300650072009A
:101A0000690061006C000000180354006500650067
:101A10006E00730079006400750069006E006F004D
:101A20000403090409024300020100C03209040052
:101A3000000102020100052400100105240101013A
:101A40000424020605240600010705820310001085
:101A500009040100020A000000070503024000001B
:101A6000070584024000000009024300020100C093
:101A700032090400000102020100052400100105E2
:101A80002401010104240206052406000107058241
:101A90000310000509040100020A00000007050305
:101AA0000200020007058402000200000A0600028C
:101AB0000200004001000000000000FFF8B500BF78
:101AC000F8BC08BC9E4670475FF800F0714B000000
:101AD0005FF800F0595500005FF800F09D650000C8
:101AE0005FF800F0B54900005FF800F0FD6E0000FF
:101AF0005FF800F0798700005FF800F0E96B000004
:101B00005FF800F0754B00005FF800F00580000002
:101B10004500000071020000051D0000491D000085
:101B2000291F00007D220000992700007536000063
:101B300000000000000000000000000000000000A5
:101B40000000000000000000000000000000000095
:101B500010B5054C237833B9044B13B10448AFF3E7
:101B600000800123237010BDB01A00200000000087
:101B7000C4DC0000084B10B51BB108490848AFF39E
:101B800000800848036803B910BD074B002BFBD049
:101B9000BDE81040184700BF00000000B41A002044
:101BA000C4DC0000B01A00200000000010B540F6B0
:101BB000B83182B0384802F03DF84FF4E131364890
:101BC00002F034F80121344802F012F8002856D10E
:101BD00000213148012202F0CBF801212E4802F009
:101BE00007F830B106212D4805F098FD2A4802F08B
:101BF0001BF8012001F08AF800F06AF9032000F0D8
:101C000009FE0A21012001F043F9FE2000F0BEF98F
:101C100000F09CFA00F00EFA002000F003FAD0ED7C
:101C2000017A1F48FCEEE77ACDED017A9DF80410A9
:101C300001F004FF002000F0F5F9D0ED027A194818
:101C4000FCEEE77ACDED017A9DF8041001F0F6FE86
:101C5000012000F0E7F90446022000F0E3F9014614
:101C6000204601F049FC002000F0DCF901F09AFE6A
:101C700000F024FE02B0BDE8104001F0E9BD1021E3
:101C8000094805F04BFD0A21034801F027FF0248EF
:101C900001F0CAFF9CE700BFD01E00201400002006
:101CA000D41A0020CC1A00200000002038B5214CA6
:101CB000236813B92368012B1ED91F4D1F4801F05B
:101CC00019FF2A681E4903469042086018D39A1AE1
:101CD000F92A11D94FF4FA7118482B6001F010FF5E
:101CE0000121164801F084FF78B91448052101F05C
:101CF000F5FE124801F068FFBDE8384001F070B809
:101D00002B60BDE8384001F06BB801210B4801F0B1
:101D10000DFF01210B4805F001FD216800230A2277
:101D2000094806F027FA054801F040FF034801F092
:101D30007BFFDAE7A0210020D01A0020D01E00206F
:101D4000D81A00201C000020E410002070B51248B2
:101D500082B001F075FED8B100243B2625460F481D
:101D600001F06EFE00288DF804600CBF07230A23E3
:101D70008DF805508DF806308DF80740019801F078
:101D80006FFA01F053FD012380F83C3002B070BDC2
:101D9000022404254326E2E7D41A0020CC1A0020AE
:101DA00008B5044801F0FAFD0348BDE8084001F019
:101DB000F5BD00BFD41A0020CC1A002000B585B0B4
:101DC000042813D8DFE800F01527394B03002D490C
:101DD000684606F02BFB684600F0CEFF684606F02A
:101DE000E5FA294B6421186801F08EF805B05DF81A
:101DF00004FB2649684606F019FB684600F0BCFF64
:101E0000684606F0D3FA224B6421186801F07CF88A
:101E100005B05DF804FB1F49684606F007FB6846FD
:101E200000F0AAFF684606F0C1FA1B4B642118684F
:101E300001F06AF805B05DF804FB1849684606F041
:101E4000F5FA684600F098FF684606F0AFFA144BC2
:101E50006421186801F058F805B05DF804FB1149D9
:101E6000684606F0E3FA684600F086FF684606F02A
:101E70009DFA0D4B6421186801F046F805B05DF835
:101E800004FB00BF94000020280000203400002044
:101E90002000002048000020A8000020640000204E
:101EA0002C0000207C00002030000020012001F0E8
:101EB000A7BD00BF002001F0A3BD00BF00B970475F
:101EC000024B0C20197800F00FB800BF240000204E
:101ED00008B501210D2004F097FB00210D20BDE87D
:101EE000084004F08BBB00BFC9B20129F8B534D05B
:101EF00022D30429074617D1204D214E2B68326882
:101F000003F57A73934214D31E4C40F2ED222368FA
:101F1000934205DD1C4B06201978FFF7E5FF236887
:101F20000133326823602A603846BDE8F84000F08B
:101F30002FBF0123134CF4E700F02AFF01210D20ED
:101F400004F05CFB642004F0CDFA00210D2004F0C5
:101F500055FB642004F0C6FAF0E700F019FF0121F8
:101F60000D2004F04BFB642004F0BCFA00210D208E
:101F700004F044FB642004F0B5FAF0E7E01A002016
:101F8000A0210020DC1A0020AC00002038B5034658
:101F9000114C0121C0B2236004F036FB21780F48B8
:101FA00002F058F890B10E4C0E4904F52075234606
:101FB000002003F1280243F8041B9342FBD10130B7
:101FC0000428F6D1A034A542F1D138BD064B01203A
:101FD0001978FFF789FFE6E7681D0020181F002029
:101FE000E41A002000007F43F000002070B50A4C86
:101FF00006460D4623680A2B05DD084B0420197898
:10200000FFF772FF2368064A581C02EBC30142F82F
:10201000336020604D6070BD641D0020F000002022
:102020006C1D0020024B00EB800003EB401070475A
:10203000E41A0020F0B589B00123134A6846134919
:1020400002F0BCF8684601F07BFFB8B1104E33686F
:10205000002B0DDD0F4F00243D46AA88684657F837
:102060003410013401F058FF33680835A342F4DC22
:10207000684601F007FF684601F054FF684601F02A
:1020800049FF09B0F0BD00BFB0000020181F0020BC
:10209000641D00206C1D0020F0B58DB0244925483A
:1020A00002F004F9244904A806F0C0F904A800F0DD
:1020B00063FE04A806F07AF904A813231C4A1D49FC
:1020C00002F07CF804A801F03BFF30B31B4E3368EC
:1020D000002B0DDD1A4F00243D466A6804A857F80E
:1020E0003410013401F088FE33680835A342F4DC73
:1020F00004A801F0C7FE04A801F014FF11496846C6
:1021000006F094F9684600F037FE684606F04EF98E
:1021100004A801F0FFFE0DB0F0BD0B4B03201978B1
:10212000FFF7E2FE04A801F0F5FE0DB0F0BD00BF20
:10213000B0000020181F0020B8000020641D0020FF
:102140006C1D0020D0000020F00000202DE9F04F91
:102150008BB001235D4A02A85D4902F02FF802A866
:1021600001F0EEFE00287FD00023DFF87091DFF849
:1021700068B11D461F461E461C4698469A46009367
:102180008DF8043002A801F02BFEC8B102A801F0BE
:1021900045FEC3B2232B2FD00D2BF3D00A2B2DD00D
:1021A000002CEFD12C2B6AD02F2B2AD06A4649491C
:1021B000684608F0D5FA02A801F012FE0028E5D121
:1021C0005644454468464FEAC60807F09FFCB7EE00
:1021D000C00B08EB450502A83D4409EB850585EDDC
:1021E000000A01F04FFE02A801F09CFE02A801F0D7
:1021F00091FE0BB0BDE8F08F0124C3E7D4B10024F9
:10220000C0E76846A84407F081FC0AEB06030135E5
:10221000B7EEC00BDB008DF80040032D03EB480840
:10222000474409EB870787ED000A45DC27464FEA5C
:102230008508A7E7B244684607F068FC08EB050389
:102240004FEACA0AB7EEC00B01368DF800400AEB20
:1022500043032546A0464FEA860A3B44274609EB3E
:10226000830383ED000A8DE71B4B02201978FFF7EB
:102270003BFE02A801F04EFE0BB0BDE8F08F6846B1
:1022800007F044FC0AEB060208EB0503B7EEC00BAF
:10229000D2008DF8004002EB43033B44013709EBC9
:1022A0008303092F83ED000A7FF76CAF9BF80010C2
:1022B0000320FFF719FE65E79BF800100320FFF7E6
:1022C00013FE27464FEA85085CE700BFE0000020C8
:1022D000181F0020E8000020F0000020E41A002071
:1022E00010B40024034907228470416082605DF8C5
:1022F000044B704700093D0082B030B4044602A888
:102300000D4640F8043F231D03C883E803006570B1
:10231000227030BC02B0704710B5044601214078ED
:1023200004F072F90121607804F068F9094A237811
:1023300011688B4200DC10BD074805F05BFF0648C2
:1023400005F008FF054B08201978BDE81040FFF79D
:10235000CBBD00BFBC1D0020E41000200401002004
:10236000F0B50378012B00F0C980022B6FD0974B9A
:102370004568DA7C8468002A2FD19A689349AA427A
:1023800061D0934A934E92698D60C2F30111C2F3FA
:10239000826256F821100132B1FBF2F1002D54D0C7
:1023A000B1FBF5F24AB1B1FBF2F1A94200F2A4800F
:1023B000B2F5817FC0F02081874ADA601B68002671
:1023C000032501211E615D621A641C661961407853
:1023D0000021BDE8F04004F011B972B6D97CCE07F7
:1023E0000A4608D5DFF80CE25F69DEF800603E407F
:1023F0009E62CEF800608F0706D5784E99693768DF
:10240000DA7C3940D9623160560706D5744ED969F5
:102410003768DA7C394019633160110706D5714E8F
:10242000196A3768DA7C394059633160D20605D5BC
:102430006D495A6A0E6832409A630A6062B69A68B9
:102440006249AA429DD1CA68B8E70A46AAE7674B23
:102450004568DA7C8468002A31D072B6D97CCE0710
:102460000A4608D5DFF88CE15F69DEF800603E407F
:102470009E62CEF800608F0706D5584E996937687E
:10248000DA7C3940D9623160560706D5544ED96995
:102490003768DA7C394019633160110706D5514E2F
:1024A000196A3768DA7C394059633160D70605D537
:1024B0004D495A6A0E6832409A630A6062B69A6859
:1024C0004A499542BFD0424A424E92698D60C2F35A
:1024D0000111C2F3826256F821100132B1FBF2F110
:1024E000002D6CD0B1FBF5F2002A3FF466AFB1FBD2
:1024F000F2F18D42BFF45CAF013259E73C4B4168C9
:10250000DA7C8568002A31D072B6DC7CE607224688
:1025100008D5DFF8E0E05F69DEF800603E409E62CB
:10252000CEF80060A70706D52C4E9C693768DA7C88
:102530003C40DC623460560706D5294EDC693768BA
:10254000DA7C3C401C633460140706D5254E1C6AB7
:102550003768DA7C3C405C633460D70605D5224C92
:102560005A6A266832409A63226062B69A68204CA2
:102570008A4228D0164A174E9269A160C2F301140C
:10258000C2F3826256F824400132B4FBF2F4C1B1C6
:10259000B4FBF1F242B1B4FBF2F48C4288BF0132D9
:1025A000B2F5817F33D30C4ADA601B68002603241E
:1025B00001211E615C621A641D66196107E70A4603
:1025C00092E72246E6E7E268EFE700BFD80E002078
:1025D00000C00F40F4000020FF7F7F0084E100E096
:1025E00088E100E08CE100E090E100E0880E00204E
:1025F000380E002080E100E0022A15D9023A550881
:10260000290442EA052201F47F010A43D5E6022AA1
:1026100098BF0022C8D9023A5408210442EA042291
:1026200001F47F010A43BFE70022C6E638B504463D
:102630000121407803F0E2FF2378012B24D0022B04
:102640002AD0194AD37C1946DBB1D80702D5956A3E
:10265000164805609B0703D5D06A154BD17C1860DE
:102660004D0703D5106B134BD17C1860080703D5B9
:10267000506B114BD17C1860CB0602D5926B0F4B7F
:102680001A600023A37038BD0D4AD37C1946002B75
:10269000F7D0D807DED5DAE70A4AD37C1946002BF3
:1026A000EFD0D807D6D5D2E7D80E002000E100E061
:1026B00004E100E008E100E00CE100E010E100E0EE
:1026C000380E0020880E00208378CBB901220378D1
:1026D000934282702FD0022B40D02F4B41F08001CB
:1026E0001B685966DA6D12F4F81FFBD00022596F8F
:1026F0005A66DA6D12F4F81FFBD0586FC0B27047FB
:102700000378012B0CD0022B3BD0234A0023126804
:102710005366D36D13F4F81FFBD0506FC0B27047EF
:102720001E4A002312685366D36D13F4F81FFBD0C2
:10273000506FC0B27047194B41F080011B68596659
:10274000DA6D12F4F81FFBD00022596F5A66DA6D69
:1027500012F4F81FFBD0586FC0B27047104B41F015
:1027600080011B685966DA6D12F4F81FFBD0002255
:10277000596F5A66DA6D12F4F81FFBD0586FC0B269
:102780007047074A002312685366D36D13F4F81F8D
:10279000FBD0506FC0B27047D80E0020380E00201A
:1027A000880E00200378012B10D0022B1DD0164B71
:1027B0001B685966D96D11F4F81FFBD0596F5A6622
:1027C000DA6D12F4F81FFBD05B6F70470F4B1B687C
:1027D0005966D96D11F4F81FFBD0596F5A66DA6D3E
:1027E00012F4F81FFBD05B6F7047094B1B685966EA
:1027F000D96D11F4F81FFBD0596F5A66DA6D12F4D7
:10280000F81FFBD05B6F7047D80E0020380E0020F9
:10281000880E002038B50128234B186043DD05469B
:102820000124022C214813D0032C22D0012C32D1B8
:1028300003F0A0FC0C211D4803F0EAFD0B211B480E
:1028400003F0B0FD0D21194803F012FE022D2AD02D
:10285000174803F08FFC0121154803F0D9FD1A2118
:10286000134803F09FFD1B21114803F001FE032DC7
:1028700019DD1048042403F07DFC0E210D4803F0FF
:10288000C7FD02210B4803F08DFD0321094803F029
:10289000EFFDA54207DD084B013407201978FFF74B
:1028A00023FBA542BDDC38BDBC1D0020380E002036
:1028B000880E0020D80E00200401002000224FF4D2
:1028C000E131014805F0F8B880100020014805F01A
:1028D0003FB800BF8010002030B5072185B0BC484C
:1028E00004F01CFFBB4A1368352B00F031811CDD5E
:1028F00040F261418B4200F03D813EDC702B66D09E
:1029000078DD712B00F00381832B4BD00023B2497B
:1029100068466C46136005F089FDB04B1B78CBB15F
:102920002146AF4805F0F0FB14E00D2B00F0F580D8
:1029300015DC022B41D04DDD052B00F022810B2B45
:10294000E4D16C46A749204605F070FDA34B1B78E7
:10295000002BE5D1204605F029FD05B030BD162B32
:1029600022D03CDD332B00F0CC80342BCED1FFF7CE
:10297000A1FA002000F0AEF914E040F263418B426E
:102980001ED0C0F2F08040F264418B4200F0E4803F
:1029900040F265418B42B9D10420FFF70FFA0120C4
:1029A00000F098F905B030BD8F4A0020537883F0CD
:1029B0000103537000F08EF9F4E76C468B49C2E7CF
:1029C0000220FFF7FBF9012000F084F9EAE76C46EA
:1029D0008749B8E7012B99D16C468649B3E7152B97
:1029E00094D1814A0020137883F00103137000F022
:1029F00071F9D7E76F2B89D1784D68467E496C46CF
:102A000005F014FD2B78002B40F02681204605F0C0
:102A1000CDFC7A4B186800F05FFA0146204605F0BD
:102A200027FD2B78002B40F01281204605F0BEFCDC
:102A30007349204605F0FAFC2B78002B40F0028108
:102A4000204605F0B3FC6F4B186800F045FA0146CC
:102A5000204605F00DFD2B78002B40F0EE8020463F
:102A600005F0A4FC6849204605F0E0FC2B78002B1B
:102A700040F0DE80204605F099FC644B186800F0B9
:102A80002BFA0146204605F0F3FC2B78002B40F092
:102A90009980204605F08AFC5D49204605F0C6FC79
:102AA0002B78002B40F08980204605F07FFC594BA5
:102AB000186800F011FA0146204605F0D9FC2B7881
:102AC000002B75D1204605F071FC5349204605F0D6
:102AD000ADFC2B78002B66D1204605F067FC4F4BF0
:102AE000186800F0F9F90146204605F0C1FC2B7882
:102AF000002B4ED1204605F059FC002000F0EAF8EA
:102B000050E7FFF7D3F9002000F0E4F84AE7FFF7B9
:102B1000C3FA002000F0DEF844E7304D6846404933
:102B20006C4605F083FC2B78C3BB204605F03EFCC9
:102B300000F098FE0A220146204605F0ADFC2B78F5
:102B400013BB204605F032FC012000F0C3F829E752
:102B5000344B354A1A6025E70320FFF72FF901208F
:102B600000F0B8F81EE70120FFF728F9012000F077
:102B7000B1F817E70020FFF721F9012000F0AAF8CB
:102B800010E76C462949DEE62146154805F0BCFAF7
:102B9000D7E72146124805F0B7FAABE76946104877
:102BA00005F0B2FAC1E721460D4805F0ADFA93E70A
:102BB00021460B4805F0A8FA84E72146084805F0AD
:102BC000A3FA71E72146064805F09EFA61E700BFC7
:102BD00018010020C01D0020B0020020C41D0020EC
:102BE000E410002064010020CC1D002040020020E1
:102BF000EC01002020010020980100200C010020A1
:102C0000A401002010010020B4010020A403002032
:102C1000C801002008010020DC0100201401002070
:102C20002C0200200CED00E00400FA057C020020DC
:102C300021460C4805F068FA1CE72146094805F0D2
:102C400063FA0CE72146074805F05EFAF8E62146EC
:102C5000044805F059FAE8E66946024805F054FAD6
:102C6000D4E600BFE410002070B504F031FDC3B21B
:102C70000A2B06D0144A15491046BDE8704007F0EB
:102C80006FBD134D10482C68002C15DD04EB840437
:102C900006F03CFF640007EE904AB8EEE77B37EEA3
:102CA000000BBDEEC00B85ED000A074B00221A7029
:102CB000BDE87040FFF710BE06F028FFBDEEC00B68
:102CC00085ED000AF1E700BFC81D0020E8000020E4
:102CD000C01D00200A4948B90B680A4A82FB03025A
:102CE000DB17C3EBA2030B60FFF7F6BD0B68064AC8
:102CF00082FB0302DB17C3EB62130B60FFF7ECBD33
:102D0000C01D0020676666661F85EB5138B5124B03
:102D1000187000B3114A1249124D134C1378002B4E
:102D2000FCD00B78DB07F9D52B6820681B1A0E2B1B
:102D3000F4D92D210D4804F0F1FC0D4805F00AFAF4
:102D400018210C4804F0EAFC094805F003FABDE834
:102D50003840FFF7C1BD38BDC41D0020F021002060
:102D600048230020A0210020884200201C030020CE
:102D7000E41000204C030020034B1B7803B970477C
:102D80000146024805F0C0B9C41D0020E41000202F
:102D900030B585B00F4C05460F49684605F046FB37
:102DA00023788BB9684605F001FB2946684605F093
:102DB0005FFB23781BB16946084805F0A5F9684612
:102DC00005F0F4FA05B030BD6946044805F09CF9F9
:102DD000E8E700BFC41D002068030020E4100020C5
:102DE00038B5264B1B7823B1254D2B7813BB6B7858
:102DF00003B938BD00F03CFD90F82030002BF8D02E
:102E0000002400F035FD03461E4833F81410013449
:102E100089B205F0EFF901211B4804F07FFC102C6A
:102E2000EFD1184805F096F900F022FD002380F854
:102E3000203038BD00F0FAFC90F83C30002BD6D0A2
:102E4000002400F0F3FC022100EB840301340D4860
:102E500093ED000AB7EEC00A05F0DAF901210B483C
:102E600004F05CFC0A2CECD1064805F073F900F084
:102E7000DDFC002380F83C30B9E700BFC41D002012
:102E8000CC1D0020E41000209C030020A0030020A3
:102E900010B5072484B002460B4B0C480094FFF792
:102EA0002BFA14210A48FFF7A1F828210948FFF757
:102EB0009DF8084B4FF07E5103F1280243F8041BA4
:102EC0009342FBD104B010BD0024F400501E00203A
:102ED000D01D0020601E0020000E82B0094B042887
:102EE00002D0185C02B070470220191D13F8012BA4
:102EF000824201D201201AB18B42F7D102B0704751
:102F00001046EFE75C1E00202DE9F04F030E8946C6
:102F10002DED048B87B00190009342D103AD0029C1
:102F200003936B60AB605DDD07EE901A9FEDBF8A87
:102F300098461E46B8EEE79A08EE903ABC4FBD4858
:102F4000AA464FF0000BFFF70BFA3B21B948FFF7F9
:102F5000BBFB04460021B748FFF7B6FBF8EEE86A72
:102F600040EA042000B2404207EE900AF8EEE77A09
:102F700087EE897A77EE087AF4EEE67AEAEC017A5F
:102F8000F1EE10FA05DD37F91B305FFA8BF808EE29
:102F9000903A0BF1010BBBF1030F17D09AED008AA9
:102FA000D3E7009B012B08D0022B51D0009B032BB1
:102FB00000F0A280009B042B3FD09F4B022200997F
:102FC0005A5407B0BDEC048BBDE8F08F9948013628
:102FD000FFF72CFB0A2003F085FAB14505D09DEDE3
:102FE000038AACE7DDF80080914F06AB9FED8F7A46
:102FF000F6EE006A03EB8802F0EE477A00231146F2
:1030000002ED037A98450DD095ED007AE7EE267A29
:1030100041ED037A95ED007ABDEEC77A17EE102ADE
:1030200027F8132001330435032BEBD1FDEEE77AAB
:1030300017EE903A27F81830BFE700248DF80F40BC
:10304000013403984946FFF75FFF042CF6D1B4E73B
:10305000002303AD99426B600393AB60ADDD07EED7
:10306000901A98469FED718A0DF1180BB8EEE79A09
:103070006F4F70482E46FFF773F943216D48FFF7F5
:1030800023FB044600216B48FFF71EFB40EA0424A3
:10309000012024B2644207EE904AF8EEE77A87EE08
:1030A000897A77EE087AE6EC017A03F01BFAB345E9
:1030B00002D096ED008AE0E75E4808F10108FFF7CC
:1030C000B5FA0A2003F00EFA9DED038A9DED047A0D
:1030D000C145DDED057AFDEEC86ABDEEC77AFDEEAD
:1030E000E77A16EE901A17EE102A17EE903A398109
:1030F0007A81BB81BDD160E7DFF860914EF6602830
:103100004E4A03ADD9F800100DF1120610682B4697
:1031100088445168926807C346482F46AB46FFF77C
:103120001FF949214348FFF7CFFA044600214148DF
:10313000FFF7CAFA3BF9023B44EA002000B298428A
:10314000BBF90430C8BF2BF8020C8342C8BFABF8F0
:1031500004005E45E5D13748FFF768FA142003F014
:10316000C1F9D9F800304345D6D30521344804F0DD
:10317000D5FA34482C4604F0EDFF34F9021B3148EF
:1031800005F038F80121304804F0C8FAA642F4D11D
:1031900005212E4804F0C2FA2A4804AC0DF11608A5
:1031A00004F0D8FF34F9021F264805F023F8012166
:1031B000254804F0B3FAA045F4D125489FED1B7AC9
:1031C000244C35F9023B0230B5F904105A1A5B1849
:1031D00082EAE27148BF0133AE42A1EBE2714FEAED
:1031E000630384FB01E2C3F10003A2EBE1720380FD
:1031F00007EE902AF8EEE77A37EE277AE1D1164A01
:1032000002F10C0037F9023BB7F904105B1A002BEE
:10321000B8BF5B4207EE903AF8EEE77AC7EE276A4E
:10322000E2EC016A8242EDD1C7E600BF0000000077
:10323000D01D0020501E00205C1E0020A80300208E
:10324000B8030020E41000209C030020C0030020ED
:10325000DC1D0020565555557C1E0020A021002065
:10326000C0F307232DE9F04F85B01C46C0F3074A91
:103270005FFA80F903903D480293FFF771F85445D7
:1032800071DA22B23A493B4B254601EB42083A4FEC
:1032900092000021A8F10208384E019103EB020BC5
:1032A000174436E0FFF710FA002104462F48FFF7D5
:1032B0000BFA024644EA022438F902EFFBEC017AE9
:1032C00005F1140124B2F7EC016A06EB8500013523
:1032D0000EEB0403013407EE103AA4B2B8EEC77A3D
:1032E000012C27EE277AFDEEC77ACDED007ABDF9E5
:1032F000002026F8112036F8112012B207EE902A8D
:10330000F8EEE77A67EEA67AC0ED007A0FD9554558
:1033100014D0062D49461548C4DCFFF7D5F9002125
:1033200000901248FFF7D0F9009A0446C2E7019BCB
:10333000554503F10103DBB20193EAD1DDF804B096
:103340000A48FFF773F9029BC3EB0A0ADA4502D079
:1033500005B0BDE8F08F0A4B0520197805B0BDE82F
:10336000F04FFEF7C1BD4FF0000BE9E7501E002003
:10337000D01D0020601E0020281E0020E41D00201B
:10338000B403002038B51F4C0546012003F0AAF80D
:103390002046FEF7E5FF8C2225212046FFF702FAA2
:1033A0002046FFF743F9012003F09CF82046FEF782
:1033B000D7FF2A4626212046FFF7F4F92046FFF7DB
:1033C00035F9012003F08EF82046FEF7C9FF81226F
:1033D00027212046FFF7E6F92046FFF727F90120CD
:1033E00003F080F82046FEF7BBFF49212046FFF797
:1033F0006BF905462046FFF719F9012003F072F832
:10340000284638BD501E002070B5204C06460120CD
:103410000D4603F067F82046FEF7A2FF0C22252197
:103420002046FFF7BFF92046FFF700F9012003F01F
:1034300059F82046FEF794FF324626212046FFF732
:10344000B1F92046FFF7F2F8012003F04BF82046CF
:10345000FEF786FF2A4663212046FFF7A3F92046A0
:10346000FFF7E4F8012003F03DF82046FEF778FF6F
:10347000204681222721FFF795F92046FFF7D6F84D
:103480000120BDE8704003F02DB800BF501E0020A1
:1034900010B5184C012003F025F82046FEF760FF18
:1034A0008C2225212046FFF77DF92046FFF7BEF844
:1034B000012003F017F82046FEF752FF03222621D1
:1034C0002046FFF76FF92046FFF7B0F8012003F020
:1034D00009F82046FEF744FF204687222721FFF700
:1034E00061F92046FFF7A2F80120BDE8104002F084
:1034F000F9BF00BF501E00202DE9F0470746C44821
:103500000D462DED048B82B0FEF706FFC048FEF796
:1035100027FF7521BE48FFF7D7F8712804D0BD4BAF
:103520000A201978FEF7E0FCB94807F12804FFF7F4
:103530007DF8012002F0D6FFB548FEF711FF80228A
:103540006B21B348FFF72EF9B148FFF76FF8012060
:1035500002F0C8FFAE48FEF703FF02226A21AC4822
:10356000FFF720F9AA48FFF761F8012002F0BAFF3F
:1035700001210B2007F15006FFF746FF01209FEDC8
:10358000A68ADFF8908202F0ADFF01E0B44248D095
:10359000F4EC017AF4EE487AF1EE10FAF6D09C4899
:1035A000FEF7DEFE94ED097A54ED017ABCEEC77A9F
:1035B0009748FCEEE77A8DED007ACDED017A9DF823
:1035C00000209DF80410FFF7EDF89148FFF72EF862
:1035D000012002F087FF8E48FEF7C2FE54ED017A0B
:1035E0008B48FCEEE77ACDED007A9DF80010FFF7EE
:1035F0006BF8D4ED097AFCEEE77ACDED007A9DF810
:10360000003083424FF0090003D098F80010FEF715
:103610006BFC7F48FFF70AF8012002F063FFB44219
:10362000B6D10020FFF7AEFE482804D0794B0B201E
:103630001978FEF759FC05F128049FED778A50357B
:10364000744E01E0AC4237D0F4EC017AF4EE487AE3
:10365000F1EE10FAF6D0FCEEE77A14ED0B7ACDED30
:10366000007AFCEEC77A9DF80010CDED017A9DF846
:103670000400FFF7C9FE012002F034FF54ED0B7A7D
:10368000FCEEE77ACDED007A9DF80000FFF77AFEB8
:1036900054ED017AFCEEE77ACDED007A9DF800302A
:1036A00083424FF0090002D03178FEF71DFC012063
:1036B00002F018FFAC42C7D1DFF86891012002F098
:1036C00011FF01264D460024DFF850A1DFF8588194
:1036D0009FED4B9B9FED4C8B26E0032C79D0231F55
:1036E000022B55D997ED031AB0EE000BB7EEC11AB5
:1036F00005F0FAFABAF90E30B7EEC00BBAF910209D
:10370000003385ED000A18BF012302B10133BAF975
:10371000122022B1022B02D1012388F803300A2E95
:1037200022D0013401360435022CD6D897ED001A88
:10373000B0EE000BB7EEC11A05F0D6FA20EE080B7A
:10374000364B0021981DB7EEC00B85ED000A33F90A
:10375000022B02B101318342F9D10329DFD10123C8
:103760000A2E88F80030DCD12D4A07F11001F7EC61
:10377000017AFCEEE77AB94217EE903A02F8013B83
:10378000F5D102B0BDEC048BBDE8F047FFF780BE79
:1037900097ED021AB0EE000BB7EEC11A05F0A4FACD
:1037A00020EE090BBAF90830BAF90A20003318BF25
:1037B0000123B7EEC00B85ED000A02B10133BAF95F
:1037C0000C20002AABD0022BA9D1012388F80230AB
:1037D000A5E797ED011AB0EE000BB7EEC11A05F0A0
:1037E00083FAB7EEC00BBAF9063089ED030A002B55
:1037F00097D0012388F8013093E700BFAFF3008032
:10380000000000803C407F3F000000406398433F41
:10381000501E0020C803002000007F43D01D002060
:10382000241E0020281E00205C1E00200048704737
:10383000E41D002008B50448FEF752FD034B0022AA
:1038400083F83C2008BD00BF501E0020E41D00206E
:1038500000220249024804F02FB900BFA0860100EF
:10386000BC0F0020014B1878704700BF280E0020C5
:1038700000487047881E0020024B002283F8202059
:10388000704700BF881E00202DE9F84F394C3A4898
:103890002378637004F05CF86378C0B220700BB9D1
:1038A0000F2807D035490B78354C5A1CE0540A7064
:1038B000BDE8F88F31490B78152BF5D90023DFF8D7
:1038C000C4A02F4F40F2E9391C46DFF8BC801E46E9
:1038D0001D46DFF8B8B00B70681C07EB050E06F04C
:1038E00007013B5C9EF802C01B0217F805E0023599
:1038F00043EA0C4343EA0E035FFA86FE23FA0EF313
:10390000C3F30A03C03B09FB03F38BFB032EDB1756
:10391000C3EB2E2303F57A739BB228F8143038F8E2
:1039200014309BB2B3F55C7F18D0B1429AF80030E6
:1039300001F1030608BF05460E2CDBB206D12BB100
:103940000023104A18461370FEF7B8FA0134102C01
:10395000C2D1012388F82030BDE8F88F9AF80030F2
:10396000084C002BF5D10120FEF7A8FA01232370A3
:10397000EFE700BFC81E0020BC0F0020AA1E0020D9
:10398000AC1E0020280E0020881E0020E335EF2802
:1039900010B5044604F06CFB204610BD00224270B6
:1039A000704700BFD0ED007A0022104BFDEEE77AA1
:1039B0000F4918681A71C1ED007AB0B10D4B0E496C
:1039C00003440E481B1110B4CA544B780C788A7803
:1039D000A342C97828BF2346934228BF13468B428F
:1039E00028BF0B4603705DF8044B70472C0E002077
:1039F000CC1E002000BFF7BFE01000207AE400E0FA
:103A000080B10A4B1A68002A03DB511E084B994209
:103A100000D9704702EB420206490748D200013A3A
:103A200004F0C6BA044804F023BB00BFCC1E00203B
:103A3000A9AAAA0A1D0200002C0E002001707047DE
:103A4000437802460178994203D001330020537035
:103A50007047012050707047024A0349034806F03E
:103A60004FB800BF240E0020611E00002C0E002065
:103A700030B583B003F02CFE03F02AFE01ADC0B2D6
:103A80003A2807D02C4604F8010B03F021FEC0B2FF
:103A90003A28F8D1284606F03DF8044603F018FE0F
:103AA000C0B2A0F13001012902D811E00D2804D0E4
:103AB00003F00EFEC0B20A28F8D103F0A7FDC0B291
:103AC0000A2801D003B030BD03F002FE03B030BDC0
:103AD000C9B2E0B202F092FDEAE700BF0448026812
:103AE000114401E0994202D303689A42FAD970471F
:103AF000A0210020014B1868704700BFA0210020C2
:103B0000094B82681B6810B500240161C2604461E2
:103B1000836003F07BFDC0B2642800D010BDBDE817
:103B20001040FFF7A5BF00BFA02100202DE9F04104
:103B3000194B0E46194C0546062119481F6803F01B
:103B4000EDFD314600230A22204604F013FB154EFA
:103B50000321154803F0E2FD394600230A222046DE
:103B600004F008FB3046012103F0D8FDA9680023CA
:103B70000A22791A204604F0FDFA3046012103F0AA
:103B8000CDFDAE68E968204600230A22711ABDE81F
:103B9000F04104F0EFBA00BFA0210020E4100020A3
:103BA000CC030020D8030020D403002008B5062150
:103BB000034803F0B3FD0348BDE8084004F0CABA67
:103BC000DC030020E410002010B5044603F01EFDC5
:103BD000C0B2642803D0054B1B68A36010BDFFF77B
:103BE00047FF024B1B68A36010BD00BFA02100204F
:103BF00010B40C4A044671B941681368591A312946
:103C000009D8106800F13203591A01E0994202D331
:103C100013689842FAD91368012063605DF8044B79
:103C2000704700BFA0210020704700BF4FF47A709A
:103C300002F058BC00234364436041B10448026869
:103C4000114401E0994202D303689A42FAD97047BD
:103C5000A021002038B50F4C0D4606212368436093
:103C60000D4803F05BFD0A22002329460B4804F0AF
:103C700081FA06210A4803F051FD084804F06AFA67
:103C8000226802F1320101E0994202D323689A428C
:103C9000FAD938BDA0210020E4030020E410002060
:103CA000EC03002038B5037E0BB9632038BD0D4608
:103CB000044603F0CDFC10F0FF0F01D1652038BDA4
:103CC00003F0C6FC10F0FF0FF8D003F001FDC0B206
:103CD000A0F158031E2BF3D801A252F823F000BF25
:103CE0003922000091210000912100009121000063
:103CF00091210000912100009121000091210000FC
:103D00009121000091210000912100002D2200004E
:103D100091210000912100009121000091210000DB
:103D20007B210000912100009121000091210000E1
:103D300091210000912100009121000091210000BB
:103D4000912100007B2100009121000091210000C1
:103D500091210000912100007D210000204629468C
:103D6000FFF778FF632038BD00236320237638BD3A
:103D700070B505461646A9B101230B4C0376002108
:103D80002846FFF78FFF63280CD02268511C236858
:103D90009A42F4D89942FAD200212846FFF782FFCE
:103DA0006328F2D12E7670BDA0210020034B0022A3
:103DB0009A60DA601A615A61704700BFD01E002015
:103DC00000207047704700BF10B582B00468012220
:103DD00002AB03F8011D19466368984702B010BD95
:103DE000C06938B1836947F6FF72C068181A9042FB
:103DF00028BF1046704700BFC36910B504463BB1E9
:103E000000201871E06901F02BFDE3691B791BB1FB
:103E100001230020237110BD10BD00BFC06978B11F
:103E2000012200B583B00DF1070101F0ABFA0128C2
:103E30000CBF9DF807004FF0FF3003B05DF804FBA6
:103E40004FF0FF30704700BFC369C3B1012210B506
:103E500082B0044618460DF1070101F093FA0128DB
:103E600003D04FF0FF3002B010BDE0699DF807406D
:103E7000C168013901F042FB204602B010BD18466E
:103E8000704700BFC06908B101F068BB704700BF50
:103E90002DE9F04100230546154C4FF47A702B7143
:103EA0009046A86024202C600C462B7305F088FEF9
:103EB000E861C8B1064604F1200E2068103454F8B9
:103EC0000C1C374654F8082C103654F8043C744542
:103ED0000FC7F2D1206841460C22306005F10D0079
:103EE00006F004FE00236B762846BDE8F08100BF93
:103EF000440400200022064910B44FF47A74016093
:103F0000027184600273C26142735DF8044B7047B2
:103F100044040020704700BFC06908B101F032BA04
:103F2000704700BFC36953B110B50446184601F08D
:103F3000B5F9E06905F04CFE0023E36110BD704760
:103F4000C06918B18079003018BF0120704700BFE8
:103F50000AB90120704708B501F06AFC003018BFAB
:103F6000012008BDF0B50E6802F1FF3E0025835D1B
:103F70002F2B08BF013687193B783C4601372F2B82
:103F800007D033B1013501360EF8013F0C2DF3D1C6
:103F900084190023535523782F2B01D1013684191E
:103FA0000E602078003018BF0120F0BD2DE9F04FE1
:103FB000884699B00021264D83469246994644464C
:103FC0008DF81C1006AE8DF81E108DF840108DF87F
:103FD0004210019106950F9505E001F05FF9FDB1E2
:103FE000234634461E4602AA01A95846FFF7BAFFE7
:103FF00080F001024B4602A9D2B205462046D047C6
:1040000021460746012302AA70B13046ADB101F046
:10401000E5FB444505462046DFD10DB10FACDFE797
:10402000002019B0BDE8F08F4445F9D0204601F0DA
:1040300035F9384619B0BDE8F08F444506D0204622
:1040400001F02CF9012019B0BDE8F08F0120E8E75C
:104050006C04002038B590F8323004460D46CBB9D8
:10406000FE2D1CD02A460121204600F029FE08B969
:10407000002038BD251D01222146284601F0E6FE1C
:10408000C0B1294604F12C0001F052F9003018BFEC
:10409000012038BD2C3001F001F9FE2DE2D1257050
:1040A00000F01CFB054600F0FDF9A070B5FA85F0A4
:1040B0004009DCE702462146284601F0C7FE0028F9
:1040C000DFD1002038BD00BF2DE9F04F99B09246F6
:1040D000DFF8E490002206AD0746043190462846FA
:1040E00054460FAE01938DF81C208DF81E208DF8DC
:1040F00040208DF84220CDF81890CDF83C9001F08A
:1041000017F92F21204606F051FB214648B32278AB
:10411000031B02A82F2ADBB243D00C2B28BF0C2391
:104120001A469B461C4406F0E1FC18AB30465B4443
:1041300003F8588C01F0B2F8012302AA2946304650
:1041400001F04CFB00282ED0284601F0A7F82B46A2
:104150002F21204635461E4606F028FB2146002822
:10416000D5D1CAEB04040198297904606A79AB7946
:10417000E868AC682E69397195F814E07A71A9691C
:10418000BB71EA692B6AF8603846C7F80090BC60DA
:104190003E6187F814E0B961FA613B6219B0BDE88D
:1041A000F08F0134ADE73871B8713846C7F8009028
:1041B00019B0BDE8F08F00BF6C040020F0B59DB0D1
:1041C00005461F4614466B4601A8FFF77DFF009A7F
:1041D000A35C1444002B42D00023324E9DF80A20E9
:1041E0008DF82C308DF82E300A96002A31D03B46BF
:1041F000224601A90AA801F0F1FA50B301A801F082
:104200004DF817F0060F47D19DF82D3022469DF846
:104210002E7013A90D9C284613968DF851300C9ED4
:104220000E9B9DF82CE08DF85270159616941793FE
:104230009DF83C70109E119C129B8DF850E08DF8FB
:10424000607019961A941B93FFF722FE28461DB042
:10425000F0BD2846FFF74EFE28461DB0F0BD9DF884
:10426000083013A90F4A28469DF809709DF80A6086
:10427000039C8DF850301392049B059A8DF8517071
:104280008DF852601594169317929DF81870079E3A
:10429000089C099B044AD2E70AA8109901F02EF95C
:1042A000B2E700BF6C0400206004002010B40C468C
:1042B000002300F12C01034A20465DF8044BFFF770
:1042C00075BE00BF21240000064B002202200649D3
:1042D0009A705860D96283F8242083F8302083F8DC
:1042E00032207047181F00206C040020264A4FF42B
:1042F0007A71264B526A01FB00F0D3F80031244951
:1043000003F03F03A1FB0313F0B49B08C2F3C224E4
:10431000204A0134B2FBF3F3B3FBF4F4B0EB141F07
:104320002DD2012301E0FF2B05D85B001A01B4FB5D
:10433000F2F29042F7D35A081702B4FBF3F290421C
:1043400020D259000122561CB4FBF1F5A8421944B1
:1043500013D2102E3246F6D1F0230F4C0F48E26AEA
:104360002146104040F4602040EA07021A43E2620E
:104370004B6A1B07FCD5F0BC70471301EDE7002723
:104380000123DAE70023E8E700C00F4000800D407A
:10439000ABAAAAAA00EC695E00002C400F00F0FF57
:1043A000204B1A6B194610B442F080021C461A6367
:1043B0004A6A1C4BD207FBD4626A9207F8D4D860D1
:1043C0004FF08072184600E0AAB1016B013A164B1B
:1043D000144C0B40002BF7D06AB1012B0BD1236B8F
:1043E00013F0800F236B0FD043F0011303202363DE
:1043F0005DF8044B70470B4A01200C4B116B0B43CB
:1044000013635DF8044B704713F48030236B04D0C2
:1044100043F0011305202363F3E743F00103236313
:10442000EFE700BF00002C4001000E0001000F006C
:1044300070B50D4D00260D4840F2E734AE60FFF731
:10444000AFFF034606E04BB9AE60FFF7A9FF013CA2
:10445000034605D06A6A05485207F4D4184670BD71
:10446000002808BF052070BD00002C400000DB0CB8
:1044700038B5094C002305460848A360FFF790FFB4
:1044800000B138BD23690648A560FFF789FF002801
:10449000F7D1236938BD00BF00002C4000001A3757
:1044A00000000229074B1A784AB99A782AB15B783A
:1044B000002B0CBF02200320704701207047002012
:1044C000704700BF6C1F0020384B1A780AB10320D8
:1044D000704770B55B78064603B94902344D4FF614
:1044E000FF734FF4813233482B63AB6C43F01003FE
:1044F000AB64A9606A60FFF753FF00284DD12C46DA
:104500002B6906F1400206F510702946236B284EF0
:1045100043F0200513F4E00F25633FD1636A1D05C6
:10452000FCD50B6A403242F8803C0B6A42F87C3C76
:104530000B6A42F8783C0B6A42F8743C0B6A42F80A
:10454000703C0B6A42F86C3C0B6A42F8683C0B6AA0
:1045500042F8643C0B6A42F8603C0B6A42F85C3CEF
:104560000B6A42F8583C0B6A42F8543C0B6A42F81A
:10457000503C0B6A42F84C3C0B6A42F8483C0B6AD0
:1045800042F8443C8242C1D1002009490B6B084AE1
:104590009B07FBD5084B136370BD70BD074A1A43D8
:1045A0003263FFF745FF0120EFE700BF6C1F0020DB
:1045B00000002C4010003A11220000012000700081
:1045C000F8B5284B1A780AB10320F8BD5B78044689
:1045D00003B94902244D4FF4813224482B6B2B63DD
:1045E000AB6C23F01003AB64A9606A60FFF7D8FEE0
:1045F0000028EAD12A462B6904F500772E46136B72
:104600001949D806FBD5336B13F4E00F19D104F127
:10461000400154F8043B144DA1421362F9D1336BAD
:1046200043F010033363336B13F4E00011D18F4276
:10463000E5D10D490B6B0C4A9B07FBD50C4B136363
:10464000F8BD0A6B0B4B13430B63FFF7F1FE012020
:10465000EFE72A6B074B13432B63FFF7E9FE0120BB
:10466000E7E700BF6C1F002000002C4000003A1854
:104670001200000110007000164A174BD2F800110A
:1046800041F08001C2F80011D2F8001121F03F0181
:10469000C2F80011D2F8001141F01801C2F800115F
:1046A000D2F8001121F08001C2F80011D3F8802067
:1046B00042F00C02C3F880205A6A22F460525A6217
:1046C000DA6942F48032DA615A6A42F460525A621C
:1046D000704700BF00800D4000C00F402DE9F04141
:1046E000FFF7CAFF4FF00045A94B0521A948C3F8C1
:1046F000CC11A94C0246C3F8D011C3F8BC11C3F8C1
:10470000C011C3F8C411C3F8C8118564C36A1C433F
:10471000C462D36ADC01FCD44FF4C870FFF7E6FD35
:104720009C4A536A9B4813F00303FAD1984C47F212
:10473000880541F288074FF48136C4F8CC3102462F
:10474000C4F8D03140F2DC51C4F8BC31C4F8C031F7
:10475000C4F8C431C4F8C831C4F8BC53C4F8C05359
:10476000C4F8AC53C4F8B073C4F8B453C4F8B85325
:104770004660836A894C23F0380343F02803836240
:10478000036B03634463D36A43F00063D362D36A69
:10479000804C1801FBD40139F5D1236B43F0800321
:1047A0002363636ADA0309D47D4B02225960104601
:1047B0005970997099601A70BDE8F081784D08467B
:1047C00029706970A970A163A1606960A960FFF791
:1047D000E7FD68B94FF4D57322697248A360FFF70B
:1047E000DFFD48B923692369B3F5D57F00F0C180A7
:1047F00001202870BDE8F0810528F9D10020FFF7DD
:1048000037FE0028F4D1634B1A6912F4401F1ED002
:104810006A780446644F1E46002ADFF8908108BF7C
:104820004FF4401738460134FFF722FE002840F0CD
:10483000A3804445336901D8002BF3DA5B4B9C42DB
:1048400003D8544B1B695B0001D400236B70002319
:10485000504C5748A360FFF7A3FD03460028C7D17B
:1048600022695448A360FFF79BFD0028C0D123694B
:10487000514F236951481F40494EA7606F60FFF7B1
:104880008FFD0028B4D1A3691B0EF370E36913F404
:10489000400F74D1A169A3696069C1F303219A0231
:1048A0006369093902F44062C3F3C21342EA9052C9
:1048B0000233013202FA03F38B40B360354E4048B5
:1048C000B760FFF76DFD002892D14FF40073326995
:1048D0003C48B360FFF764FD002889D133693A484A
:1048E000B760FFF75DFD002882D1022332693748A7
:1048F000B360FFF755FD074600287FF479AF3369B1
:104900000523B26A46F2A810214C22F00602B262D8
:10491000B26A42F00202B262C4F8CC31C4F8D031BB
:10492000C4F8BC31C4F8C031C4F8C431C4F8C831CB
:10493000FFF7DCFC47F2880341F28802C4F8CC712F
:10494000C4F8D071C4F8BC71C4F8C071C4F8C471A3
:10495000C4F8C871C4F8BC33C4F8C033C4F8AC336D
:10496000C4F8B023C4F8B433C4F8B8332878BDE829
:10497000F08101236B7041E70120BDE8F081012344
:10498000B3706369C3F3152301339B02B36095E7EA
:1049900000801F4000002C4000800001BB007F1100
:1049A0006C1F002000001A08000030409F860100A4
:1049B0000000090200001A030000FFFF00000909BF
:1049C00000001B0700001A1000001A3700001A062A
:1049D000052834D8DFE800F00B131B232B031C4BF6
:1049E00007221C491C4883E8060001F0C3BB184B92
:1049F00007221A49184883E8060001F0BBBB144B94
:104A000007221749144883E8060001F0B3BB104B96
:104A100007221449104883E8060001F0ABBB0C4B99
:104A2000072211490C4883E8060001F0A3BB084B9C
:104A300007220E49084883E8060001F09BBB044B9F
:104A400007220B49044883E8060001F093BB00BF2E
:104A50007C1F002080841E00380E0020808580018D
:104A600000366E0100127A0000093D00C0C62D001C
:104A7000801A0600F0B5274EFF27274DD6F800E034
:104A80002B685F66DC6D14F4F81FFBD05C6FE4B23A
:104A9000FF2C05D03468CEEB0404B4F5967FF0D338
:104AA00041F040045C66DC6D14F4F81FFBD05C6FD1
:104AB000182622FA06F4E4B25C66DC6D14F4F81FE2
:104AC000FBD0083E5C6F16F1080FF2D1F9B108294E
:104AD0000CBF8722FF225A66DA6D12F4F81FFBD052
:104AE0005A6F0021FF245C66DA6D12F4F81FFBD0C8
:104AF0005A6FCBB20131FF3BD2B218BF01234270D3
:104B000013EAD21301D02B68EDE71046F0BD9522D1
:104B1000E1E700BFA0210020380E002010B50121E0
:104B2000007801F06BFD13490B78EBB1124A0020BD
:104B3000D37C08701946BBB1D80702D5946A0F48D8
:104B400004609B0703D5D06A0D4BD17C18604C07DD
:104B500003D5106B0B4BD17C1860080705D4CB062E
:104B600002D5926B084B1A6010BD506B074BD17C7D
:104B70001860F4E7841F0020380E002000E100E0F8
:104B800004E100E008E100E010E100E00CE100E0F9
:104B9000404A13781BB10078002101F02FBD3E4B35
:104BA0003E49F0B50124DE7C0D6814704C68002E7F
:104BB00031D072B6D97CCE070A4608D5DFF8FCE0C2
:104BC0005F69DEF800603E409E62CEF800608F07AD
:104BD00006D5334E99693768DA7C3940D96231603D
:104BE000560706D52F4ED9693768DA7C39401963E4
:104BF0003160110706D52C4E196A3768DA7C3940C6
:104C000059633160D20605D528495A6A0E68324088
:104C10009A630A6062B69A681F49AA422BD0244A56
:104C2000244E92698D60C2F30111C2F3826256F87C
:104C300021100132B1FBF2F1DDB1B1FBF5F242B16D
:104C4000B1FBF2F1A94288BF0132B2F5817F14D3E2
:104C5000194ADA601B680026032501211E615D6286
:104C60001A641C66196100210078BDE8F04001F06B
:104C7000C5BC0A46E3E7CA68ECE7022A98BF0022EF
:104C8000E7D9023A5508290442EA052201F47F01D6
:104C90000A43DEE7841F0020380E00207C1F00201E
:104CA00084E100E088E100E08CE100E090E100E0D8
:104CB00000C00F40F4000020FF7F7F0080E100E093
:104CC0002DE9F04700230546B14E894602700121C7
:104CD0001046AB70376801F091FC2878012101F093
:104CE00093FC0121287801F089FCDFF8BC82A94AF5
:104CF0000723A94C404684E80C0001F03BFA01214F
:104D00000A2001F081FC0A20012101F077FC98F8CB
:104D1000130094E8044000283AD072B698F81300C3
:104D2000C40703460AD5DFF8A8C2D8F81440DCF857
:104D300000102140C8F82810CCF80010800709D5D1
:104D40009648D8F81810046898F813302140C8F82D
:104D50002C100160590709D59148D8F81C10046837
:104D600098F813302140C8F8301001601C0709D5AD
:104D70008C48D8F82010046898F813302140C8F8FF
:104D800034100160D80600F1A88062B698F81300CC
:104D9000D8F808308449934200F0C080834B844C9B
:104DA0009B698A60C3F30111C3F3826354F8211035
:104DB0000133B1FBF3F1002A00F08D80B1FBF2F377
:104DC0004BB1B1FBF3F1914288BF0133B3F5817F61
:104DD000C0F0D080774BC8F80C30D8F80020002401
:104DE00003214FF0010C14610A245162FF21136466
:104DF000C2F860E0C2F810C05166D36D13F4F81F1A
:104E0000FBD0013C536F14F0FF04F5D128B3C10768
:104E100005D5D8F82820684B98F813001A60820747
:104E200005D5D8F82C20654B98F813001A60430775
:104E300005D5D8F83020624B98F813001A600107A6
:104E400005D5D8F834205F4B98F813001A60C206D5
:104E500003D5D8F838205C4B1A602846FFF798FE37
:104E600004E03368DB1BB3F5FA6F51D80022284603
:104E70001146FFF7FFFD012882466870F1D14FF41B
:104E8000D57208212846FFF7F5FD43072ED585F892
:104E900002A04FF0000A04E03368DB1BB3F5FA6FA1
:104EA00036D8002237212846FFF7E4FD5246292153
:104EB0002846FFF7DFFD68700028EDD1AB78022BA4
:104EC00033D028460124FFF729FE4846FFF780FD2E
:104ED0002046BDE8F0870B4672E73C49D8F82430FD
:104EE00008680340C8F838300B604EE70421FF2003
:104EF000D8F800205066D36D13F4F81FFBD0526F22
:104F00004B1ED2B213F0FF016A70F1D1AA2A07D06A
:104F10002846FFF703FE2046BDE8F087CB685CE734
:104F200002234FF0804AAB70BBE702463A21284685
:104F3000FFF7A0FD0028EBD1D8F80030FF225A6619
:104F4000DA6D12F4F81FFBD05A6F02F0C002C02ACB
:104F500003D10323AB70D8F800300321FF2058663B
:104F6000DA6D12F4F81FFBD001395A6F11F0FF010E
:104F7000F5D1A6E7022B01D800232CE7023B590804
:104F80000A0443EA012302F47F02134323E700BF2C
:104F9000A0210020801A06007C1F002084E100E090
:104FA00088E100E08CE100E0380E002000C00F40F6
:104FB000F4000020FF7F7F0000E100E004E100E05A
:104FC00008E100E00CE100E010E100E090E100E029
:104FD00080E100E00F4970B40F4DFF240E682A688D
:104FE0005466D36D13F4F81FFBD0536FDBB2FF2B65
:104FF000437007D10B689B1BB3F5967FEFD9002058
:1050000070BC7047A3F1FE00B0FA80F070BC40099C
:10501000704700BFA0210020380E002070B58378B3
:105020000D4604461646032B18BF4D02FFF7B0FD90
:1050300011212A462046FFF71DFD18B92046FFF72B
:10504000C9FF20B92046FFF769FD002070BD114D52
:105050004FF40072FF21304605F026F94FF400733B
:1050600032462846314601F039FA2B68FF225A664B
:10507000DA6D12F4F81FFBD0FF22596F5A66DA6D11
:1050800012F4F81FFBD020465B6FFFF747FD0120AD
:1050900070BD00BF380E00201B4B10B41C68616649
:1050A000E36D13F4F81FFBD0511E636F02F2FF1281
:1050B00011F8013F6366E36D13F4F81FFBD09142D2
:1050C000636FF5D1FF236366E36D13F4F81FFBD024
:1050D000FF23626F6366E36D13F4F81FFBD0FF23B9
:1050E000626F6366E36D13F4F81FFBD0636FDBB28E
:1050F00003F01F0243705DF8044BA2F10500B0FA03
:1051000080F04009704700BF380E0020F8B5054612
:1051100069B183780C461646032B18BF4C02FFF783
:1051200037FD182122462846FFF7A4FC20B1284667
:10513000FFF7F4FC0020F8BD3246FE212846FFF7B9
:10514000ABFF0028F3D01549FF20154E0F683268D9
:105150005066D36D13F4F81FFBD0546FE4B2FF2CEC
:1051600005D00B68DB1BB3F5167FF1D3DFE7002218
:105170000D212846FFF77EFC0028D8D132685466FE
:10518000D36D13F4F81FFBD0536F13F0FF0FCED184
:105190002846FFF7C3FC0120F8BD00BFA021002076
:1051A000380E0020024B0722024983E806007047B0
:1051B0007C1F002000093D0038B590F90530002B18
:1051C00003DBBDE8384000F04FBC04460121006914
:1051D00000F08AFC00B3257D104B13EB45151BD066
:1051E000A379012B15D9E3690D491A0C6B830B6860
:1051F000AA8233B105F1160105F1180098472B8BEF
:105200006B82637903F07F036371BDE8384000F07F
:105210002BBCA369EB61E6E7002038BD941F00209A
:10522000881F002010B500F1080204460121006A21
:1052300000F050FD50B1E3693BB963790120A268E9
:1052400063F07F03E261637110BD012010BD00BFF8
:1052500070B50646FFF7E6FF98B1326AB568117C73
:10526000023D536914798D40013B74B11D4402E045
:1052700014F0FF0407D06019013C00F0A5FC0028E1
:10528000F6D1002070BD336A197C4FF40072B46906
:10529000012002FA01F32344B36170BD82790AB997
:1052A0000020704710B50446FFF786FF18B10023B1
:1052B0000120A37110BD002010BD00BFF0B44B1E33
:1052C000202401F10A0203F8014F9342FBD1013877
:1052D0000025072610F8014F14B32E2C1BD0134ABB
:1052E0007C239C4214D012F8013F002BF9D1A4F189
:1052F00021035D2B0CD8AE420AD3A4F161036F1CCD
:105300004A19192BFDB201D8203CE4B21470E1E730
:105310000020F0BC70470A2EFAD008250A26D9E7EB
:105320000878203818BF0120F3E700BFE0190060BB
:1053300038B583793BB991F820200D460446102AF0
:1053400003D0202A11D0002038BD0222C36182710F
:105350004B8C5B0183610023012225621046627140
:10536000A360E3602361237538BD032300F11802B5
:105370000846A371496AE16100F07CFC0028EAD18B
:10538000E1E700BF837913B94FF0FF3070472DE993
:10539000F04F8B46417983B00546C9075AD5C1689D
:1053A0008469641A944228BF144626460194002C4E
:1053B00068D01A46DFF8FC903D4FC1F3080A022A74
:1053C000DFF8F48041D0286A0479013C04EA5124D2
:1053D000E4B2BAF1000F61D1002C5FD1002955D1A0
:1053E000E969A9600239027C406901FA02F22118D8
:1053F0001144CAF500746A79B442A8BF3446530612
:105400002DD4B4F5007F2AD00846002100F06CFBB3
:1054100000B30AEB090E0EEB040086450BD00BF12E
:10542000FF32734613F8011B984202F8011FF9D1AD
:10543000CEEB00008344E968361B2144E96021D0AB
:10544000AA79C1F3080A022ABDD12A6A506A00EB80
:105450005121CEE74FF0FF3003B0BDE8F08F3A683E
:105460009142D1D0D8F800000378FE2B18D05A46CC
:10547000FFF7D4FD0028EDD0E968361BA344214492
:10548000E960DDD1019803B0BDE8F08F05F10802B5
:10549000A96800F0B5FB0028DCD0286AA968A1E75C
:1054A0005846FFF711F8B0FA80F04009E2E700BF74
:1054B000340E0020941F0020901F00208379012BC0
:1054C00017D9C368012230B583B00446C3F343152E
:1054D0000DF10701FFF756FF012802D0002003B0AD
:1054E00030BDE36804481F3300EB4510E36003B0B0
:1054F00030BD0020704700BF941F0020F8B58379AD
:1055000013B182698A4201D20020F8BD022B0F46F6
:1055100005461CD0F7B12B6A7C1EE9681B7C4A1E2D
:105520000933DA40DC40A24202D809B1A41A01E0F2
:10553000EB69AB6005F1080606E0A968013C286A42
:1055400000F05EFB0028DFD03246002CF5D1EF6082
:105550000120F8BDAF600120EF60F8BD83790BB189
:10556000FFF72ABE184670478379012B01D000202F
:105570007047F0B5457983B00246AC071CD5856904
:105580000C468D4218D3D5B12546D6681446FFF790
:10559000B5FF88B1B5B9E169206A00F027FC58B1C0
:1055A000E56122E000F022FC30B16FF07042A168AA
:1055B000206A00F009FCC0B9002003B0F0BD184615
:1055C00003B0F0BD01AAA168206A00F019FB002811
:1055D000F2D0206A4FF6F8720E4B90F820700199C5
:1055E000102F08BF13469942DCD36379A27963F088
:1055F0007F03A5616371002ADED02046FFF7DCFD42
:105600000028D9D0B5422946204628BF3146FFF7A9
:1056100075FFD2E7F8FFFF0F38B51D4B03EB4113C1
:10562000DD7A15F0110F02D012F0420F1ED115468F
:10563000184A01750446126802619A8A598B41EA38
:105640000241C161D87A10F018000DD1DA69012346
:10565000A261A37105F00F03002163716B06A160C5
:10566000E1600FD4012038BD102801D0002038BDE2
:1056700004F11802206A00F0FDFA0028F6D0042395
:10568000A371E7E72046BDE83840FFF76DBF00BFD4
:10569000941F0020340E00202DE9F04784B080468E
:1056A0000C46104601AE9A463146FFF707FEA8B3F6
:1056B0000022216ADFF82091C8F820101346A2606A
:1056C0001746E26007E0BEF1E50F16D004F056FD84
:1056D000002838D0E368A2692046C3F343159A42F4
:1056E00020D9FFF7EBFE0B220346B8B190F800E09B
:1056F00001463046BEF1000FE5D13FB9D9F8002090
:1057000088F81450C8F8102093F800E00127BEF183
:10571000000FDFD10AF01203122B1ED0002004B0BC
:10572000BDE8F0870AF01203122BF7D1AFB9A379C5
:10573000022BF3D02046FFF78BFD0028EED0244C3F
:1057400088F8147016E00AF03003302BE6D0524689
:1057500029464046FFF760FFE1E70121D8F8100035
:1057600000F0C2F90028D9D098F81440184B13EB78
:105770004414D3D020220021204604F095FD154A80
:105780002346156896E8070003C3110C23F8022B83
:105790001970A5B104F10E0104F11000A847238A85
:1057A000E28963822383E28200F05EF90028B5D0AB
:1057B000524698F814104046FFF72EFFAFE742F626
:1057C00021004FF4006103460A462082E181E8E7A8
:1057D000941F0020881F0020340E002010B484790C
:1057E0001CB100205DF8044B70475DF8044BFFF7D7
:1057F00053BF00BF10B500210446FFF7B5FE08B93E
:10580000002010BD0121206900F06EF90028F7D0BA
:10581000237D064A5B01DA42F2D0E520002198544C
:10582000A171BDE8104000F01FB900BF941F002017
:1058300030B58BB00024094D0A460223014601A869
:105840008DF808408DF80A400195FFF725FF10B14B
:1058500001A8FFF7CFFF0BB030BD00BF6C040020E4
:105860002DE9F04F85B0074601928279012A05D0D3
:10587000012300203B7105B0BDE8F08F4279940709
:10588000F6D553078B4608D5B969FB688B4200F003
:10589000C080FFF733FE0028EAD0019BF968002B97
:1058A00000F0C580DDF80480DFF89C91DFF89CA152
:1058B000386AC1F308060279013A02EA512515F067
:1058C000FF0553D1002E51D1B968002979D1FA6969
:1058D000002A00F08980BA60C6F50074023A90F898
:1058E00010E0A4B24169444542D902FA0EF20D44D7
:1058F0001FFA88F415441EB9F868BA69904253D269
:105900002846012100F0F0F80028B1D04E4406EB03
:10591000040E76450DD00BF1FF31721E0EF1FF35EE
:1059200011F8010F02F8010F9542F9D1C6EB0E06EE
:10593000B344FD68B8EB040804EB0501F960B7D186
:10594000BB6999426AD97A79B96142F080027A7169
:10595000120707D5BB79002B8AD03846FFF72CFCFD
:10596000002885D0019805B0BDE8F08FBA68B3E78C
:1059700002FA0EF20D44B4F5007F1544BBD1DAF8FB
:105980000020954239D02C4A294610680278FE2A18
:1059900038D05A46FFF7BAFB00283FF469AF0BF541
:1059A000007B4FF40074C4E700F05EF800283FF479
:1059B0005FAF2249CAF800500A7842F001020A702B
:1059C000A4E703AA00F01CF900283FF454AF386A9A
:1059D0004FF6F8711A4B90F82040039A102C18BF1C
:1059E00019468A42FFF477AF3846FFF71BFC0028C0
:1059F0003FF43EAF386ABA686EE74FF0FF32CAF83C
:105A00000020C0E75846FEF7DBFDB0FA80F0400901
:105A1000C2E7019B002B7FF445AF99E7094B7A79E8
:105A20001B68002B94D042F080027A7190E7BB692A
:105A30008B4288D37A798BE7901F00209421002035
:105A4000F8FFFF0F881F0020941F0020340E002055
:105A500000B583B0012202AB03F8011D1946FFF720
:105A6000FFFE03B05DF804FB70B51A4C23780BB948
:105A7000012070BD184D194B286819680378FE2B5A
:105A800017D0174AFFF742FB88B1164E316819B993
:105A900000230120237070BD28680378FE2B0FD0EF
:105AA0000F4AFFF733FB10B100233360F0E700200B
:105AB00070BD0B48FEF784FDB0FA80F04009E3E7C3
:105AC0000748FEF77DFDB0FA80F040090028EBD1D1
:105AD000EDE700BF94210020901F0020340E00202D
:105AE000941F00208C1F002070B5124D0E462B68AD
:105AF000834211D00446FFF7B7FF08B9002070BDFC
:105B00000D4B18680378FE2B0CD00C4A2146FFF78A
:105B100085FA0028F2D02C60094B01201978314316
:105B2000197070BD21460548FEF7CEFCB0FA80F032
:105B30004009EEE7340E0020901F0020941F002043
:105B400094210020F8B590F8203005460E461746FF
:105B5000102BC469184B17D004EBD1141B689C425E
:105B600017D106F07F01154A42F821701449287EAA
:105B70000A78012842F001020A7019D9A9680120A7
:105B8000104A0B441360F8BD04EB11241B689C42BF
:105B900008D000212046FFF7A7FF50B195F820302C
:105BA000102B07D1F1B2054A234622F81170DDE728
:105BB0000120F8BD2346D4E7340E0020941F0020B6
:105BC000942100208C1F002010B50446FFF74CFFE5
:105BD00070B1084B002103F5007203F8011F9342D6
:105BE000FBD1054A0120054913780C60034313706B
:105BF00010BD00BF931F002094210020340E002010
:105C0000C36801338B4218D370B590F82030044636
:105C100016460D46102BC069144B10D000EBD11066
:105C20001B68984210D105F07F01114B012053F8F9
:105C3000213023F07043336070BD0020704700EBCB
:105C400011201B68984207D00021FFF74DFF50B18B
:105C500094F82030102BE6D1E9B2054B012033F83F
:105C60001130336070BD002070BD00BF340E0020C5
:105C7000941F00202DE9F04782B004469146084663
:105C800002AD4FF0000A4FF40078114F4FF6F8764E
:105C900045F8041D0CE094F82030227C0198102B6C
:105CA00014BF3B46334608FA02F29842924409D2A6
:105CB00001462A462046FFF7A3FF0028EBD102B099
:105CC000BDE8F0870120C9F800A002B0BDE8F08768
:105CD000F8FFFF0F2DE9F04F176883B067B3013766
:105CE0004FF0000AC36803F101080BB38B46064668
:105CF00091463C46002505E01C461F460135F368E9
:105D0000AB4215D9A04501AA304601D2022427464C
:105D10002146FFF775FF631C50B1019AD91B002A79
:105D2000EAD18B4510D01C460135F368AB42E9D867
:105D3000002003B0BDE8F08FA1F1010A0768BAFAAC
:105D40008AFA4FEA5A1ACDE7012CF1D9F3680133E8
:105D50009C42EDD86FF0704221463046FFF7F2FECC
:105D60000028E5D0A74214D2013C012CE0D9F36809
:105D700001339C42DCD8621C21463046FFF7E2FE2C
:105D80000028D5D0A74204F1FF3402D0012CEED177
:105D9000CEE7D9F8001059B10129C9D9F368013308
:105DA0009942C5D83A463046FFF7CCFE0028BFD00E
:105DB000C9F80070BAF1000F03D001370120376035
:105DC000B7E70120B5E700BF01290CD9C36801334B
:105DD000994210B403D85DF8044BFFF7B3BE00201E
:105DE0005DF8044B70470020704700BF0223F0B5F8
:105DF000054683B00C464FF6F877134E03600BE070
:105E0000FFF7A0FED0B195F82030019C102B0CBFFD
:105E10003B4633469C4214D2214601AA2846FFF74E
:105E2000EFFE012CB0FA80F32146284606D95B0923
:105E30001A461BB9EB6801339C42E1D9002003B03C
:105E4000F0BD012003B0F0BDF8FFFF0FF8B5404BE7
:105E5000054614461960DAB1042A01D90020F8BDBC
:105E600000210846FFF740FE0028F7D0394B03EB2E
:105E7000041292F8AE215206F0D11B3403EB041445
:105E8000D4F80A30632BE9D9D4F80640002CE5D0C9
:105E900000212046FFF728FE0028DFD02D4AB2F867
:105EA0000B30B3F5007FD9D1137C002BD6D0D1892C
:105EB0000029D3D0567B002ED0D000212B7601278D
:105EC0002E710B46297403E009290B462974C5D0AD
:105ED00007FA03F0591CB042F6D1D18A1D4801B926
:105EE000416AD089A9602044167CDFF868E0E86147
:105EF000B2F8117001FB060178016F84696200F24B
:105F0000FF1001EB60206861B2F8131009B9DEF8E8
:105F10002010241A40F6F4700C4424FA03F3834250
:105F2000EB600AD94FF6F4718B420BD9D26A202369
:105F300001206A6285F82030F8BD0C23012085F825
:105F40002030F8BD1023012085F82030F8BD00BFB7
:105F5000901F0020941F002010B4047F4160022C89
:105F6000C26003D05DF8044B01F05ABC83685DF851
:105F7000044B184770B440F20125046825611BB337
:105F80001E46F1B10D780131013B6566256FAD0705
:105F900006D4656F013EEDB212B11570013204688E
:105FA0006569ED07F2D5002BEBD16EB101680B6F7F
:105FB0009B07FCD44B6FDBB20AB113700132013E78
:105FC000F3E790F83C50DFE770BC7047F0B5304C19
:105FD000304BA06C656C0179226CD97729791977DF
:105FE00001791977FAB1B2F5004F18D22B6892B245
:105FF000D98B0E043BD4DA83D98B89B2D98203685A
:10600000D98B09042CD4DA830021DA8B92B2DA829C
:10601000216402791F4BDA762A79DA76F0BD1E4BBD
:1060200013442364F5E7E06C0F25236840F2013E3A
:1060300001684FF47C579D6503260D681749DA61A6
:106040008D42C3F810E05F6184F83D6017D1037F93
:106050004260022BC26017D0BDE8F04001F0E0BB07
:10606000D98BC2F3080201F47E410A43CBE7D98BF6
:10607000C2F3080601F47E413143D983BCE72B46C5
:106080001146BDE8F04018478368BDE8F040184766
:10609000880E002000800E400180FFFF2944000090
:1060A000F0B5304C304BA06C656C0179226CD9771F
:1060B0002979197701791977FAB1B2F5004F18D219
:1060C0002B6892B2D98B0E043BD4DA83D98B89B278
:1060D000D9820368D98B09042CD4DA830021DA8BA6
:1060E00092B2DA82216402791F4BDA762A79DA7663
:1060F000F0BD1E4B13442364F5E7E06C0F252368C5
:1061000040F2013E01684FF47C579D6503260D68FF
:106110001749DA618D42C3F810E05F6184F83D6091
:1061200017D1037F4260022BC26017D0BDE8F04058
:1061300001F076BBD98BC2F3080201F47E410A4319
:10614000CBE7D98BC2F3080601F47E413143D983F2
:10615000BCE72B461146BDE8F04018478368BDE810
:10616000F0401847380E002000800E400180FFFFED
:10617000294400004368F0B593E88200DFF8FCE1B1
:10618000B8260A680225754C22EA0702744F0A6095
:10619000DEF818201440734A27430F24CEF81870F5
:1061A000077C1F443F7C02EB0717BF683E60477CBB
:1061B0001F4497F8247002EB0717BF683E60877C86
:1061C0001F4497F8387002EB0717BF683E600F68EE
:1061D0005E683E430E60017C5E1803EB8101367CF5
:1061E0004F6902EB061149680F60417C5E180A3165
:1061F00096F8246053F8217002EB061149680F608D
:10620000817CD3F848E05E1803EB81011F6A96F8A1
:106210003860C96B02EB06125E6B52681160817CBC
:106220000268194491F84410CEF80010017C19441A
:10623000097F3960417C0B4493F83030336015613D
:106240009465C37C002B29D072B6C37CDC0706D5CD
:10625000454A436911680B4083621360C37C990708
:1062600006D5424A836911680B40C3621360C37C40
:106270005A0706D53E4AC36911680B400363136091
:10628000C37C1F0706D53B4A036A11680B40436372
:106290001360C37CDE064BD462B60268364D836859
:1062A000AB424CD0354B85609B69354CC3F301162E
:1062B000C3F38261334B54F826400131B4FBF1F152
:1062C000A3FB01431B0D29D1C3600026032507242E
:1062D000012116615562136414661161C37CE3B138
:1062E000DD0703D5284B826A1A60C37C9C0703D55F
:1062F000264BC26A1A60C37C590703D5244B026B34
:106300001A60C37C1A0703D5224B426B1A60C37C08
:10631000DB0602D5826B204B1A60F0BDB1FBF3F1B6
:10632000A94288BF0133B3F5817F0AD31B4BCBE76A
:106330001B4A436A11680B4083631360ACE7C36870
:10634000C3E7022B98BF0023BED9023B5C0821049F
:1063500043EA042301F47F010B43B5E7CFFFFFE3DA
:1063600010000008CC05002080E100E084E100E09E
:1063700088E100E08CE100E000093D0000C00F4032
:10638000F400002083DE1B4300E100E004E100E0B4
:1063900008E100E00CE100E010E100E0FF7F7F0099
:1063A00090E100E04268437C1344F0B593F8243058
:1063B0008B4207D092F82430994204D092F82530CD
:1063C00099421FD0F0BD00242146166855683668F2
:1063D0002E4215D00D4D56184FF0B80E576B05EBE9
:1063E00003130A319B68C3F800E096F8243052F892
:1063F000212005EB03156B681A6096F830303B607E
:106400004474DFE701242146DFE700BFCC0500200C
:106410004268037C1344F0B41B7C8B4205D0137C90
:10642000994204D0537C99421DD0F0BC704700249F
:1064300021461668556836682E4212D00B4D561804
:10644000B827043105EB031302EB8101126A9B6844
:106450001F60337C496805EB03156B681960337F57
:1064600013600474E1E701242146E2E7CC05002033
:106470004268837C1344F0B493F838308B4207D0E1
:1064800092F83830994205D092F8393099421FD0AD
:10649000F0BC7047002421461668556836682E42C5
:1064A00014D00D4D5618B8270E3105EB031302EB2F
:1064B0008101926C9B681F6096F83830496805EB43
:1064C00003156B68196096F8443013608474DFE735
:1064D00001242146E0E700BFCC0500200BB1FFF707
:1064E00049BD7047002857D001222DE9F04F85B0F3
:1064F00083462A4C2A4D2B4EDDE9028954E8003FA1
:106500002868336844E800210029F7D1264FCDE9F7
:1065100002893A68D31A254A4FF47A7E01971268A5
:106520000127A3FB02234FF47A72984600238B4283
:1065300008BF42452CBFC246F2460EFB00AA54E8F3
:10654000003F2A68316844E80073002BF7D10198B6
:106550000068411A15484FF47A7E00680EFB02F27B
:10656000A1FB00014FF47A70CAEB020288460021B9
:10657000994208BF40452CBF434673461A447245B2
:1065800007D3BBF1010B0AF57A7AD8D105B0BDE883
:10659000F08F01F0AFFFD2E7704700BF4825002021
:1065A000A021002098210020041000E09C21002060
:1065B00000010F4B1A181B5810B4D0685C680442D5
:1065C00005D059B1C3F884005DF8044B7047936857
:1065D00049B9084A5DF8044B1A607047C3F888004F
:1065E0005DF8044B7047044A5DF8044B1A6070472D
:1065F000CC0500203830010038F00100362801D8E1
:10660000FFF7D6BF704700BF36281CD800011A4AD2
:10661000012902EB0003105810B415D0042913D03F
:10662000DC68426822EA040242609A68E9B1022901
:106630001ED003295B685DF8044B0CBF0F4910495D
:10664000116015221A607047DA680129446842EA2D
:10665000040242609A6808D040F6380111605B6815
:1066600015225DF8044B1A60704738211160F6E777
:1066700004491160F3E700BFCC0500203830010069
:106680003800010038F0010004207146084203D0B0
:10669000EFF3098000F008B8EFF3088000F004B8C9
:1066A000704700BF704700BF1B4B05211B4A3820B5
:1066B00030B5C2F848110821C2F8380383B05A68CF
:1066C000174C0A4317485A60C3F88410C3F888105F
:1066D0002368834202D9144802F01EF80E4D0824A4
:1066E0000020124A1249C5F884400190019B934250
:1066F00005D8019B01330193019B9342F9D9C5F859
:1067000088400190019B8B42EDD8019B013301939E
:10671000019B8B42F9D9E6E700C01B4000801F4077
:10672000FC100020FF45C32300A3E1113F420F00EE
:106730003F548900094A08B5136820B11844084934
:10674000884202D81060184608BD03F0EDF90C220B
:106750004FF0FF330260184608BD00BF280F00202D
:106760000000282072B6064A0721064B1964936B75
:1067700043F040039363BFF34F8F30BFFDE700BF8B
:1067800000400D4000C00A40836BF0B41BB1536859
:1067900043F40043536072B6446BDCB1144B226087
:1067A000D3F8B0410C421FD1124D2F6804E02C6881
:1067B000E41BB4F5166F0BD2D3F8404144F4804487
:1067C000C3F84041D3F8B861D3F840416404EED532
:1067D000314209D10023064C8260C360D4F8B03145
:1067E0001943C4F8B0110263426362B6F0BC70474B
:1067F00000002E40041000E070B50646006B90B11A
:106800000246002403E012680134012A0CD05368C8
:1068100013F08003F7D032632CB1B36B056898474F
:10682000013C2846F9D170BD33637363F4E700BFC0
:10683000F0B5E1B9214C22490020224B01224FF052
:10684000011580260A601A46A1604E60E060C3F818
:10685000BC51D3F8B0411C4D44F001048860C3F82A
:10686000B0412860D2F8B031002BFBD1F0BD090453
:10687000164B144D0126114C41F0800100221E6080
:10688000596000F5805CE26400F5005EA36400F5E9
:106890004057D5F8B01100F580462A46986041F47B
:1068A0008031C3F80CC0C3F810E05F619E61C5F889
:1068B000B011D2F8B031002BFBD1BCE70040002072
